{
  "_format": "hh-sol-artifact-1",
  "contractName": "KrypVault",
  "sourceName": "contracts/KrypVault.sol",
  "abi": [
    {
      "inputs": [
        {
          "internalType": "address",
          "name": "tokenAddress",
          "type": "address"
        },
        {
          "internalType": "address",
          "name": "_employer",
          "type": "address"
        }
      ],
      "stateMutability": "nonpayable",
      "type": "constructor"
    },
    {
      "inputs": [],
      "name": "ClaimAmountPending",
      "type": "error"
    },
    {
      "inputs": [
        {
          "internalType": "uint8",
          "name": "got",
          "type": "uint8"
        },
        {
          "internalType": "uint8",
          "name": "expected",
          "type": "uint8"
        }
      ],
      "name": "InvalidEncryptedInput",
      "type": "error"
    },
    {
      "inputs": [],
      "name": "OnlyEmployer",
      "type": "error"
    },
    {
      "inputs": [
        {
          "internalType": "int32",
          "name": "value",
          "type": "int32"
        }
      ],
      "name": "SecurityZoneOutOfBounds",
      "type": "error"
    },
    {
      "inputs": [],
      "name": "TransferFailed",
      "type": "error"
    },
    {
      "anonymous": false,
      "inputs": [
        {
          "indexed": true,
          "internalType": "address",
          "name": "worker",
          "type": "address"
        }
      ],
      "name": "AllocationSet",
      "type": "event"
    },
    {
      "inputs": [],
      "name": "claim",
      "outputs": [],
      "stateMutability": "nonpayable",
      "type": "function"
    },
    {
      "inputs": [
        {
          "internalType": "uint256",
          "name": "amount",
          "type": "uint256"
        }
      ],
      "name": "deposit",
      "outputs": [],
      "stateMutability": "nonpayable",
      "type": "function"
    },
    {
      "inputs": [],
      "name": "employer",
      "outputs": [
        {
          "internalType": "address",
          "name": "",
          "type": "address"
        }
      ],
      "stateMutability": "view",
      "type": "function"
    },
    {
      "inputs": [
        {
          "internalType": "address",
          "name": "worker",
          "type": "address"
        }
      ],
      "name": "getAllocationHandle",
      "outputs": [
        {
          "internalType": "euint128",
          "name": "",
          "type": "uint256"
        }
      ],
      "stateMutability": "view",
      "type": "function"
    },
    {
      "inputs": [
        {
          "internalType": "address",
          "name": "",
          "type": "address"
        }
      ],
      "name": "hasAllocation",
      "outputs": [
        {
          "internalType": "bool",
          "name": "",
          "type": "bool"
        }
      ],
      "stateMutability": "view",
      "type": "function"
    },
    {
      "inputs": [
        {
          "internalType": "address",
          "name": "user",
          "type": "address"
        }
      ],
      "name": "isEmployer",
      "outputs": [
        {
          "internalType": "bool",
          "name": "",
          "type": "bool"
        }
      ],
      "stateMutability": "view",
      "type": "function"
    },
    {
      "inputs": [
        {
          "internalType": "address",
          "name": "worker",
          "type": "address"
        }
      ],
      "name": "revokeAllocation",
      "outputs": [],
      "stateMutability": "nonpayable",
      "type": "function"
    },
    {
      "inputs": [
        {
          "internalType": "address",
          "name": "worker",
          "type": "address"
        },
        {
          "components": [
            {
              "internalType": "uint256",
              "name": "ctHash",
              "type": "uint256"
            },
            {
              "internalType": "uint8",
              "name": "securityZone",
              "type": "uint8"
            },
            {
              "internalType": "uint8",
              "name": "utype",
              "type": "uint8"
            },
            {
              "internalType": "bytes",
              "name": "signature",
              "type": "bytes"
            }
          ],
          "internalType": "struct InEuint128",
          "name": "encAmount",
          "type": "tuple"
        }
      ],
      "name": "setAllocation",
      "outputs": [],
      "stateMutability": "nonpayable",
      "type": "function"
    },
    {
      "inputs": [],
      "name": "token",
      "outputs": [
        {
          "internalType": "contract IERC20",
          "name": "",
          "type": "address"
        }
      ],
      "stateMutability": "view",
      "type": "function"
    },
    {
      "inputs": [],
      "name": "totalDeposited",
      "outputs": [
        {
          "internalType": "uint256",
          "name": "",
          "type": "uint256"
        }
      ],
      "stateMutability": "view",
      "type": "function"
    }
  ],
  "bytecode": "0x60a060405234801561000f575f80fd5b50604051611fdd380380611fdd8339818101604052810190610031919061010a565b8173ffffffffffffffffffffffffffffffffffffffff1660808173ffffffffffffffffffffffffffffffffffffffff16815250508060035f6101000a81548173ffffffffffffffffffffffffffffffffffffffff021916908373ffffffffffffffffffffffffffffffffffffffff1602179055505050610148565b5f80fd5b5f73ffffffffffffffffffffffffffffffffffffffff82169050919050565b5f6100d9826100b0565b9050919050565b6100e9816100cf565b81146100f3575f80fd5b50565b5f81519050610104816100e0565b92915050565b5f80604083850312156101205761011f6100ac565b5b5f61012d858286016100f6565b925050602061013e858286016100f6565b9150509250929050565b608051611e6f61016e5f395f8181610555015281816106f601526109680152611e6f5ff3fe608060405234801561000f575f80fd5b506004361061009c575f3560e01c8063b6b55f2511610064578063b6b55f2514610144578063e70b11df14610160578063ebe897d11461017c578063fc0c546a146101ac578063ff50abdc146101ca5761009c565b8063099fadc2146100a0578063417d6c99146100bc5780634e71d92d146100ec5780639af9cc27146100f6578063ae200e7914610126575b5f80fd5b6100ba60048036038101906100b591906114b7565b6101e8565b005b6100d660048036038101906100d19190611511565b610332565b6040516100e39190611556565b60405180910390f35b6100f461038a565b005b610110600480360381019061010b9190611511565b61062c565b60405161011d9190611556565b60405180910390f35b61012e610649565b60405161013b919061157e565b60405180910390f35b61015e600480360381019061015991906115ca565b61066e565b005b61017a60048036038101906101759190611511565b6107e1565b005b61019660048036038101906101919190611511565b610920565b6040516101a3919061162e565b60405180910390f35b6101b4610966565b6040516101c19190611699565b60405180910390f35b6101d261098a565b6040516101df91906116c1565b60405180910390f35b60035f9054906101000a900473ffffffffffffffffffffffffffffffffffffffff1673ffffffffffffffffffffffffffffffffffffffff163373ffffffffffffffffffffffffffffffffffffffff161461026e576040517fb13fc17f00000000000000000000000000000000000000000000000000000000815260040160405180910390fd5b5f6102818261027c906118e5565b61098f565b905061028c81610a02565b6102968184610a81565b8060015f8573ffffffffffffffffffffffffffffffffffffffff1673ffffffffffffffffffffffffffffffffffffffff1681526020019081526020015f2081905550600160025f8573ffffffffffffffffffffffffffffffffffffffff1673ffffffffffffffffffffffffffffffffffffffff1681526020019081526020015f205f6101000a81548160ff021916908315150217905550505050565b5f60035f9054906101000a900473ffffffffffffffffffffffffffffffffffffffff1673ffffffffffffffffffffffffffffffffffffffff168273ffffffffffffffffffffffffffffffffffffffff16149050919050565b5f6103a75f546fffffffffffffffffffffffffffffffff16610b01565b90505f6103f160015f3373ffffffffffffffffffffffffffffffffffffffff1673ffffffffffffffffffffffffffffffffffffffff1681526020019081526020015f205483610b13565b90505f6104448260015f3373ffffffffffffffffffffffffffffffffffffffff1673ffffffffffffffffffffffffffffffffffffffff1681526020019081526020015f205461043f5f610b01565b610b5c565b90505f6104505f610b01565b905061045b81610a02565b6104658133610a81565b8060015f3373ffffffffffffffffffffffffffffffffffffffff1673ffffffffffffffffffffffffffffffffffffffff1681526020019081526020015f20819055505f60025f3373ffffffffffffffffffffffffffffffffffffffff1673ffffffffffffffffffffffffffffffffffffffff1681526020019081526020015f205f6101000a81548160ff0219169083151502179055505f61050583610bbe565b90505f816fffffffffffffffffffffffffffffffff160361052a57505050505061062a565b806fffffffffffffffffffffffffffffffff165f8082825461054c9190611924565b925050819055507f000000000000000000000000000000000000000000000000000000000000000073ffffffffffffffffffffffffffffffffffffffff1663a9059cbb33836040518363ffffffff1660e01b81526004016105ae9291906119a2565b6020604051808303815f875af11580156105ca573d5f803e3d5ffd5b505050506040513d601f19601f820116820180604052508101906105ee91906119f3565b610624576040517f90b8ec1800000000000000000000000000000000000000000000000000000000815260040160405180910390fd5b50505050505b565b6002602052805f5260405f205f915054906101000a900460ff1681565b60035f9054906101000a900473ffffffffffffffffffffffffffffffffffffffff1681565b60035f9054906101000a900473ffffffffffffffffffffffffffffffffffffffff1673ffffffffffffffffffffffffffffffffffffffff163373ffffffffffffffffffffffffffffffffffffffff16146106f4576040517fb13fc17f00000000000000000000000000000000000000000000000000000000815260040160405180910390fd5b7f000000000000000000000000000000000000000000000000000000000000000073ffffffffffffffffffffffffffffffffffffffff166323b872dd3330846040518463ffffffff1660e01b815260040161075193929190611a1e565b6020604051808303815f875af115801561076d573d5f803e3d5ffd5b505050506040513d601f19601f8201168201806040525081019061079191906119f3565b6107c7576040517f90b8ec1800000000000000000000000000000000000000000000000000000000815260040160405180910390fd5b805f808282546107d79190611a53565b9250508190555050565b60035f9054906101000a900473ffffffffffffffffffffffffffffffffffffffff1673ffffffffffffffffffffffffffffffffffffffff163373ffffffffffffffffffffffffffffffffffffffff1614610867576040517fb13fc17f00000000000000000000000000000000000000000000000000000000815260040160405180910390fd5b5f6108715f610b01565b905061087c81610a02565b6108868183610a81565b8060015f8473ffffffffffffffffffffffffffffffffffffffff1673ffffffffffffffffffffffffffffffffffffffff1681526020019081526020015f20819055505f60025f8473ffffffffffffffffffffffffffffffffffffffff1673ffffffffffffffffffffffffffffffffffffffff1681526020019081526020015f205f6101000a81548160ff0219169083151502179055505050565b5f60015f8373ffffffffffffffffffffffffffffffffffffffff1673ffffffffffffffffffffffffffffffffffffffff1681526020019081526020015f20549050919050565b7f000000000000000000000000000000000000000000000000000000000000000081565b5f5481565b5f80600690508060ff16836040015160ff16146109e9578260400151816040517f67cf30710000000000000000000000000000000000000000000000000000000081526004016109e0929190611a95565b60405180910390fd5b6109fa6109f584610cbc565b610cfe565b915050919050565b73ea30c4b8b44078bbf8a6ef5b9f1ec1626c7848d973ffffffffffffffffffffffffffffffffffffffff166365d0509c82306040518363ffffffff1660e01b8152600401610a51929190611abc565b5f604051808303815f87803b158015610a68575f80fd5b505af1158015610a7a573d5f803e3d5ffd5b5050505050565b73ea30c4b8b44078bbf8a6ef5b9f1ec1626c7848d973ffffffffffffffffffffffffffffffffffffffff166365d0509c83836040518363ffffffff1660e01b8152600401610ad0929190611abc565b5f604051808303815f87803b158015610ae7575f80fd5b505af1158015610af9573d5f803e3d5ffd5b505050505050565b5f610b0c825f610d95565b9050919050565b5f610b1d83610daf565b610b2d57610b2a5f610b01565b92505b610b3682610daf565b610b4657610b435f610b01565b91505b610b54600684846013610dc0565b905092915050565b5f610b6684610eaf565b610b7657610b735f610ec0565b93505b610b7f83610daf565b610b8f57610b8c5f610b01565b92505b610b9882610daf565b610ba857610ba55f610b01565b91505b610bb56006858585610ed2565b90509392505050565b5f610bc882610fc3565b5f80610bd384610fe9565b915091508015610be7578192505050610cb7565b617a694603610c855773ea30c4b8b44078bbf8a6ef5b9f1ec1626c7848d973ffffffffffffffffffffffffffffffffffffffff16631c76642b856040518263ffffffff1660e01b8152600401610c3d91906116c1565b602060405180830381865afa158015610c58573d5f803e3d5ffd5b505050506040513d601f19601f82011682018060405250810190610c7c9190611af7565b92505050610cb7565b6040517fcb9320fa00000000000000000000000000000000000000000000000000000000815260040160405180910390fd5b919050565b610cc46113ff565b6040518060800160405280835f01518152602001836020015160ff168152602001600660ff16815260200183606001518152509050919050565b5f73ea30c4b8b44078bbf8a6ef5b9f1ec1626c7848d973ffffffffffffffffffffffffffffffffffffffff166327f9c76283336040518363ffffffff1660e01b8152600401610d4e929190611c00565b6020604051808303815f875af1158015610d6a573d5f803e3d5ffd5b505050506040513d601f19601f82011682018060405250810190610d8e9190611af7565b9050919050565b5f80610da384600685611007565b90508091505092915050565b5f610db982611102565b9050919050565b5f73ea30c4b8b44078bbf8a6ef5b9f1ec1626c7848d973ffffffffffffffffffffffffffffffffffffffff16631888debd8684610dfd888861110e565b5f67ffffffffffffffff811115610e1757610e166116ee565b5b604051908082528060200260200182016040528015610e455781602001602082028036833780820191505090505b506040518563ffffffff1660e01b8152600401610e659493929190611d49565b6020604051808303815f875af1158015610e81573d5f803e3d5ffd5b505050506040513d601f19601f82011682018060405250810190610ea59190611af7565b9050949350505050565b5f610eb982611102565b9050919050565b5f610ecb825f6111a8565b9050919050565b5f73ea30c4b8b44078bbf8a6ef5b9f1ec1626c7848d973ffffffffffffffffffffffffffffffffffffffff16631888debd866004610f118888886111d1565b5f67ffffffffffffffff811115610f2b57610f2a6116ee565b5b604051908082528060200260200182016040528015610f595781602001602082028036833780820191505090505b506040518563ffffffff1660e01b8152600401610f799493929190611d49565b6020604051808303815f875af1158015610f95573d5f803e3d5ffd5b505050506040513d601f19601f82011682018060405250810190610fb99190611af7565b9050949350505050565b610fcc81610daf565b610fdc57610fd95f610b01565b90505b610fe58161128d565b5050565b5f805f80610ff685611312565b915091508181935093505050915091565b5f73ea30c4b8b44078bbf8a6ef5b9f1ec1626c7848d973ffffffffffffffffffffffffffffffffffffffff16631888debd84601a5f67ffffffffffffffff811115611055576110546116ee565b5b6040519080825280602002602001820160405280156110835781602001602082028036833780820191505090505b5061109a898960ff166110958a6113a8565b6111d1565b6040518563ffffffff1660e01b81526004016110b99493929190611d49565b6020604051808303815f875af11580156110d5573d5f803e3d5ffd5b505050506040513d601f19601f820116820180604052508101906110f99190611af7565b90509392505050565b5f808214159050919050565b60605f600267ffffffffffffffff81111561112c5761112b6116ee565b5b60405190808252806020026020018201604052801561115a5781602001602082028036833780820191505090505b50905083815f8151811061117157611170611d9a565b5b602002602001018181525050828160018151811061119257611191611d9a565b5b6020026020010181815250508091505092915050565b5f805f905083156111b857600190505b5f6111c4825f86611007565b9050809250505092915050565b60605f600367ffffffffffffffff8111156111ef576111ee6116ee565b5b60405190808252806020026020018201604052801561121d5781602001602082028036833780820191505090505b50905084815f8151811061123457611233611d9a565b5b602002602001018181525050838160018151811061125557611254611d9a565b5b602002602001018181525050828160028151811061127657611275611d9a565b5b602002602001018181525050809150509392505050565b5f73ea30c4b8b44078bbf8a6ef5b9f1ec1626c7848d973ffffffffffffffffffffffffffffffffffffffff16630828982783336040518363ffffffff1660e01b81526004016112dd929190611abc565b5f604051808303815f87803b1580156112f4575f80fd5b505af1158015611306573d5f803e3d5ffd5b50505050819050919050565b5f8073ea30c4b8b44078bbf8a6ef5b9f1ec1626c7848d973ffffffffffffffffffffffffffffffffffffffff1663458693c9846040518263ffffffff1660e01b815260040161136191906116c1565b6040805180830381865afa15801561137b573d5f803e3d5ffd5b505050506040513d601f19601f8201168201806040525081019061139f9190611dc7565b91509150915091565b5f808260030b12156113f157816040517f8f568bf80000000000000000000000000000000000000000000000000000000081526004016113e89190611e20565b60405180910390fd5b8163ffffffff169050919050565b60405180608001604052805f81526020015f60ff1681526020015f60ff168152602001606081525090565b5f604051905090565b5f80fd5b5f80fd5b5f73ffffffffffffffffffffffffffffffffffffffff82169050919050565b5f6114648261143b565b9050919050565b6114748161145a565b811461147e575f80fd5b50565b5f8135905061148f8161146b565b92915050565b5f80fd5b5f608082840312156114ae576114ad611495565b5b81905092915050565b5f80604083850312156114cd576114cc611433565b5b5f6114da85828601611481565b925050602083013567ffffffffffffffff8111156114fb576114fa611437565b5b61150785828601611499565b9150509250929050565b5f6020828403121561152657611525611433565b5b5f61153384828501611481565b91505092915050565b5f8115159050919050565b6115508161153c565b82525050565b5f6020820190506115695f830184611547565b92915050565b6115788161145a565b82525050565b5f6020820190506115915f83018461156f565b92915050565b5f819050919050565b6115a981611597565b81146115b3575f80fd5b50565b5f813590506115c4816115a0565b92915050565b5f602082840312156115df576115de611433565b5b5f6115ec848285016115b6565b91505092915050565b5f819050919050565b5f61161861161361160e84611597565b6115f5565b611597565b9050919050565b611628816115fe565b82525050565b5f6020820190506116415f83018461161f565b92915050565b5f61166161165c6116578461143b565b6115f5565b61143b565b9050919050565b5f61167282611647565b9050919050565b5f61168382611668565b9050919050565b61169381611679565b82525050565b5f6020820190506116ac5f83018461168a565b92915050565b6116bb81611597565b82525050565b5f6020820190506116d45f8301846116b2565b92915050565b5f80fd5b5f601f19601f8301169050919050565b7f4e487b71000000000000000000000000000000000000000000000000000000005f52604160045260245ffd5b611724826116de565b810181811067ffffffffffffffff82111715611743576117426116ee565b5b80604052505050565b5f61175561142a565b9050611761828261171b565b919050565b5f80fd5b5f60ff82169050919050565b61177f8161176a565b8114611789575f80fd5b50565b5f8135905061179a81611776565b92915050565b5f80fd5b5f80fd5b5f67ffffffffffffffff8211156117c2576117c16116ee565b5b6117cb826116de565b9050602081019050919050565b828183375f83830152505050565b5f6117f86117f3846117a8565b61174c565b905082815260208101848484011115611814576118136117a4565b5b61181f8482856117d8565b509392505050565b5f82601f83011261183b5761183a6117a0565b5b813561184b8482602086016117e6565b91505092915050565b5f60808284031215611869576118686116da565b5b611873608061174c565b90505f611882848285016115b6565b5f8301525060206118958482850161178c565b60208301525060406118a98482850161178c565b604083015250606082013567ffffffffffffffff8111156118cd576118cc611766565b5b6118d984828501611827565b60608301525092915050565b5f6118f03683611854565b9050919050565b7f4e487b71000000000000000000000000000000000000000000000000000000005f52601160045260245ffd5b5f61192e82611597565b915061193983611597565b9250828203905081811115611951576119506118f7565b5b92915050565b5f6fffffffffffffffffffffffffffffffff82169050919050565b5f61198c61198761198284611957565b6115f5565b611597565b9050919050565b61199c81611972565b82525050565b5f6040820190506119b55f83018561156f565b6119c26020830184611993565b9392505050565b6119d28161153c565b81146119dc575f80fd5b50565b5f815190506119ed816119c9565b92915050565b5f60208284031215611a0857611a07611433565b5b5f611a15848285016119df565b91505092915050565b5f606082019050611a315f83018661156f565b611a3e602083018561156f565b611a4b60408301846116b2565b949350505050565b5f611a5d82611597565b9150611a6883611597565b9250828201905080821115611a8057611a7f6118f7565b5b92915050565b611a8f8161176a565b82525050565b5f604082019050611aa85f830185611a86565b611ab56020830184611a86565b9392505050565b5f604082019050611acf5f8301856116b2565b611adc602083018461156f565b9392505050565b5f81519050611af1816115a0565b92915050565b5f60208284031215611b0c57611b0b611433565b5b5f611b1984828501611ae3565b91505092915050565b611b2b81611597565b82525050565b611b3a8161176a565b82525050565b5f81519050919050565b5f82825260208201905092915050565b8281835e5f83830152505050565b5f611b7282611b40565b611b7c8185611b4a565b9350611b8c818560208601611b5a565b611b95816116de565b840191505092915050565b5f608083015f830151611bb55f860182611b22565b506020830151611bc86020860182611b31565b506040830151611bdb6040860182611b31565b5060608301518482036060860152611bf38282611b68565b9150508091505092915050565b5f6040820190508181035f830152611c188185611ba0565b9050611c27602083018461156f565b9392505050565b7f4e487b71000000000000000000000000000000000000000000000000000000005f52602160045260245ffd5b60208110611c6c57611c6b611c2e565b5b50565b5f819050611c7c82611c5b565b919050565b5f611c8b82611c6f565b9050919050565b611c9b81611c81565b82525050565b5f81519050919050565b5f82825260208201905092915050565b5f819050602082019050919050565b5f611cd58383611b22565b60208301905092915050565b5f602082019050919050565b5f611cf782611ca1565b611d018185611cab565b9350611d0c83611cbb565b805f5b83811015611d3c578151611d238882611cca565b9750611d2e83611ce1565b925050600181019050611d0f565b5085935050505092915050565b5f608082019050611d5c5f830187611a86565b611d696020830186611c92565b8181036040830152611d7b8185611ced565b90508181036060830152611d8f8184611ced565b905095945050505050565b7f4e487b71000000000000000000000000000000000000000000000000000000005f52603260045260245ffd5b5f8060408385031215611ddd57611ddc611433565b5b5f611dea85828601611ae3565b9250506020611dfb858286016119df565b9150509250929050565b5f8160030b9050919050565b611e1a81611e05565b82525050565b5f602082019050611e335f830184611e11565b9291505056fea2646970667358221220a1dc2f2b57e04195937ce455e2a52988c23ec54a282aa0a32cd8d55fb94a226264736f6c634300081a0033",
  "linkReferences": {},
  "deployedLinkReferences": {}
}